:020000040800F2
:10000000501F0020010100083F220008C520000801
:100010003D220008150D0008E13B0008000000002B
:10002000000000000000000000000000C5250008DE
:10003000990D000800000000C3250008C92500082C
:100040001B0100081B0100081B0100081B01000820
:100050001B0100081B0100081B0100081B01000810
:100060001B0100081B0100081B0100081B01000800
:100070001B0100081B0100081B0100081B010008F0
:100080001B0100081B0100081B0100081B010008E0
:10009000793B00081B0100081B0100081B01000838
:1000A0001B0100081D2700081B0100081B01000898
:1000B0001B0100081B0100081B0100081B010008B0
:1000C0001B0100081B0100081B0100081B010008A0
:1000D0001B0100081B0100081B0100081B01000890
:1000E0001B0100081B0100081B010008DFF80CD0F1
:1000F00000F05AFB00480047F54B0008501F002055
:100100000648804706480047FEE7FEE7FEE7FEE7B1
:10011000FEE7FEE7FEE7FEE7FEE7FEE7D52600087E
:10012000ED000008202A04DB203A21FA02F0002129
:10013000704721FA02F3D040C2F1200291400843F7
:100140001946704740EA01039B0703D009E008C93C
:10015000121F08C0042AFAD203E011F8013B00F88C
:10016000013B521EF9D270472DE9FE4F804681EACD
:100170000300C00F0C46009021F0004123F0004521
:10018000B8EB0200A94105D24046214690461C46E4
:100190000B46024623F00040104347D0270DC7F31B
:1001A0000A00C3F30A510290401A019040286BDA0A
:1001B000C3F3130040F4801B0098924620B1002343
:1001C000D2EB030A63EB0B0B01985946C0F14002D6
:1001D000504600F07EF906460D4650465946019AB3
:1001E00000F086F910EB08006141002487EA115203
:1001F00084EAE7731A4340D0009A62B3019A012A55
:100200004FEA075215DC001B61EB02014FF0004280
:1002100002EA0752CDE90042001C41F58011324646
:100220002B4600F0D4F903B0BDE8F08F40462146DC
:10023000F9E7001B61EB0201001C41F58013001877
:100240005B412018A2F5001747EB030140EAD57087
:10025000B6196D4111E06D084FEA360645EAC075E2
:100260004FEA0752001B61EB0201001C41F58011AF
:1002700049084FEA30000019514132462B4603B07D
:10028000BDE8F04F00F094B900980122400000232F
:10029000D0EB020263EBE073009821464FEAE07472
:1002A000B8EB000061EB0401E9E783F000435BE792
:1002B00081F0004158E72DE9FE4F81EA030404F084
:1002C000004421F0004100944FF0000B23F0004364
:1002D00050EA01045ED052EA03045BD0C3F30A542F
:1002E000C1F30A552C44A4F2F3340194A0FB025448
:1002F000C1F3130141F48011C3F3130343F48013DA
:1003000001FB024400FB034E840A970A44EA81542D
:1003100047EA8357A4FB076802958D0A05FB07850A
:100320004FEA932C04FB0C542705029D4FEA065814
:1003300047EA1637B5EB08056EEB070C870E920EF1
:1003400047EA811742EA8312A7FB0201B6EB0B01D1
:1003500064EB00042B0D43EA0C335E1844EB1C5095
:10036000DA465146E7FB0201C5F313044FEA0B33AB
:1003700043EA14534FEA0432019C43EA0603A4F112
:100380000C040294009CCDE900B400F020F903B005
:10039000BDE8F08F00200146F9E770B521F0004379
:1003A00003430CD0C1F30A550024D5EB040564EBDC
:1003B0000403D617AD1AB34102DB0020014670BD1D
:1003C000201841EB025170BD0EB540F2334102914D
:1003D0000021CDE900110A460B4600F0F8F803B001
:1003E00000BDC1F30A5210B5C1F3130140F2FF334F
:1003F00041F480119A4201DA002010BD40F23343EB
:100400009A42A2F2334203DC5242FFF78BFE10BD48
:10041000904010BD30B5041E71F1000404DB4FF0B4
:100420000044404264EB0101141E73F1000405DB3B
:100430001C464FF00043524263EB04038B4208BF5B
:10044000824230BD30B50B460146002020220124F7
:1004500009E021FA02F59D4205D303FA02F5491B92
:1004600004FA02F52844151EA2F10102F1DC30BDA8
:100470002DE9F05F0546002092469B4688460646D9
:10048000814640241BE02846414647462246FFF766
:1004900049FE53465A46C01A914110D31146184698
:1004A000224600F016F82D1A67EB01084F46224647
:1004B0000120002100F00DF817EB00094E41201E2D
:1004C000A4F10104DFDC484631462A464346BDE834
:1004D000F09F202A04DB203A00FA02F10020704746
:1004E0009140C2F1200320FA03F319439040704772
:1004F000202A06DBCB17203A41FA02F043EAE073E8
:1005000006E041FA02F3D040C2F1200291400843D4
:10051000194670470FB4002300B589B00CA90091AB
:100520000B996FF00042CB601E4B06931E4B079356
:100530000423CDE901321D4A089202466B46002091
:1005400000F0DEF909B05DF814FB70B586B0064620
:100550004FF0FF300091CDE90101002015460C4617
:1005600004903246694604A8FFF7D4FF0246049877
:10057000211825B108B1084600E0204628600498FB
:1005800000280DD0002A02DD0098884208D0081B00
:100590000094CDE901043246694604A8FFF7BAFF8A
:1005A00006B070BD390B0008570B0008CD070008D6
:1005B00010B5141E73F1000408DA401C41F100016B
:1005C00092185B411A4301D120F0010010BD2DE9C2
:1005D000F04D92469B4611B1B1FA81F202E0B0FAB9
:1005E00080F220329046FFF774FF04460F4640EA3F
:1005F0000A0041EA0B0153465A46084313D01146FC
:1006000053EA010019D0C8F140025046FFF78AFDB5
:1006100005460E46504659464246FFF75AFF0843E4
:1006200005D0012004E020463946BDE8F08D0020C9
:10063000054346EAE0762C4337430A986305E40A0B
:10064000A0EB08000022FD0A44EA47540A3002D514
:1006500000200146E9E7010510196941DDE9084577
:1006600000196941BDE8F04DA2E72DE9F04D81EA9E
:10067000030404F0004B21F0004514464FF0000A3B
:1006800023F0004150EA050220D054EA01021DD0B7
:10069000C5F30A570246C5F31303C1F31300C1F3B0
:1006A0000A5640F4801543F48013A7EB0608101B8C
:1006B000D64608F2FD3873EB050002D308F10108B5
:1006C00001E092185B41B8F1000F03DA0020014607
:1006D000BDE8F08D00204FF48011064684460EE000
:1006E000171B73EB050705D3121B63EB05030643CA
:1006F0004CEA010C49084FEA300092185B4150EA7D
:100700000107EDD152EA030012D082EA040083EA25
:100710000501084305D0101BAB4106D2012200237E
:1007200006E000224FF0004302E06FF00102531098
:100730001AEB06004CEB085110EB0A0041EB0B01E1
:10074000BDE8F04DFFF734BFC1F30A52C1F3130106
:1007500040F2FF3341F480119A4202DA0020014650
:10076000704740F233439A42A2F2334202DC5242D3
:10077000FFF7D8BCFFF7ADBE30B5041E71F1000421
:1007800004DB4FF00044404264EB0101141E73F19E
:10079000000405DB1C464FF00043524263EB0403A8
:1007A000994208BF904230BD064C074D06E0E06814
:1007B00040F0010394E8070098471034AC42F6D3A8
:1007C000FFF798FCB04F0008D04F0008C0B24FF4BC
:1007D000F05100F001BA00002DE9FF4F087883B016
:1007E0009946FF2805D0491C2D2804D0002400205C
:1007F00008E000200BE00124F9E700EB800003EBA8
:100800004000491C0B78FF2BF7D104B14042002374
:100810000293147819461D462D2C01D02B2C04D19F
:10082000521C2D2C13D000240294AA461478FF2CBD
:100830000FD00A25A3FB057801FB05814FF0000CC2
:1008400003FB0C11521CE3194AEB0101EEE70124F2
:10085000EAE7814453EA010002D019F5C87F06DABD
:1008600003980021C0E9001107B0BDE8F08F002512
:10087000AE4E2F46DFF8B882184600F0C1F9CDE938
:100880000001B9F1000002DAC9F1000400E00446F9
:100890000023A74A1AEB030B42EB045A12E0E007CD
:1008A00007D02A46334638464146FFF704FD07463F
:1008B00088462A46334610461946FFF7FCFC054693
:1008C0000E466410002CEAD1DDE90001B9F1000FF9
:1008D0005A46534606DAFFF7C8FE3A464346FFF744
:1008E000C4FE05E0FFF7E7FC3A464346FFF7E3FCAA
:1008F000029A0AB181F00041039AC2E90001B3E70C
:100900002DE9FF4F1F468DB0D7E901464FF0FF3864
:100910002E2045464FF000090B90B9696D1C0E98CA
:100920008847396A824688470028F6D1BAF1FF3FE6
:100930000AD024F4D064002E11DDBAF12B0F08D0B8
:10094000BAF12D0F0BD102E0404611B08DE744F40F
:100950008064B9696D1C0E9888478246761E694688
:10096000600501D52D2000E02B208DF8000001F15D
:10097000010B0DF1200809E0B9696D1C0E9888473C
:1009800082460F9844F40074761E0560002E02DD46
:10099000BAF1300FF0D00B998A453ED144F0800473
:1009A00006E00F99681CA9F1010944F4007408607D
:1009B000B9696D1C761E0E98884782463028F0D0A3
:1009C0002BE00B998A4505D1200603D444F080041E
:1009D000761E18E0504603F02BFD08B30DF113010D
:1009E000761E44F400748B4508D2AAF130000BF84F
:1009F000010B200607D5A9F1010003E0200602D46F
:100A000009F101008146A00502D50F99681C086014
:100A1000B9696D1C0E9888478246002ED1DC53E0E0
:100A2000002E51DDBAF1650F02D0BAF1450F4BD15E
:100A3000A00549D5B9696D1C24F44074761E0E9842
:100A400088478246002E0CDD2B2804D0BAF12D0FEA
:100A500007D144F48074B9696D1C0E9888478246AA
:100A6000761EE00501D52D2100E02B2108F8011BA1
:100A7000CDF82C8021E00DF12901761E44F400749C
:100A800088450CD2AAF1300010F0FF0088F8000071
:100A900002D10B99884509D908F1010806E0E00563
:100AA00001D5244801E042F20F708146B9696D1CFE
:100AB0000E98884782460F980560002E04DD504648
:100AC00003F0B6FC0028D6D1F9690E988847FF20BC
:100AD0008BF8000088F800000020069007904B4635
:100AE0006A4608A906A8FFF777FEA00502D46FF0B2
:100AF00001002AE714F0240F0AD0E00714D1DDE941
:100B000006123868031D3B600068C0E900120BE064
:100B1000DDE9060100F080F80146E00704D13868FD
:100B2000021D3A600068016028460EE7000014408C
:100B30000000F03FF1D8FFFF426842B1016811F8B0
:100B4000013B23B1521EC0E9001218467047012133
:100B5000C160881E704742685AB1C368016843B9D2
:100B600083688B4205D0491E521CC0E90012002048
:100B700070474FF0FF3070470EB5C10F80EAE0704C
:100B80000844CA07002140F233438DE80E000A46AC
:100B90000B46FFF71CFD03B000BD70B5C1F30A5250
:100BA00001F000450024C1F3130140F2FF3341F48A
:100BB00080119A4201DA002070BD40F233439A421C
:100BC000A2F2334203DC5242FFF7ACFA00E090405D
:100BD0002C43F1D0404270BD7F2801D9002208E0AB
:100BE000064A02EB5002C007127800D1120902F047
:100BF0000F0201209040084070470000704F00082D
:100C00000EB540F2334202920022CDE90022134693
:100C1000FFF7DDFC03B000BD01F0004330B421F06C
:100C2000004150EA010206D00A0DA2F56072C1F33C
:100C30001301002A02DC30BC00207047440F44EA54
:100C4000C104C100E01830BC00EBC250AFF300801B
:100C50000029A8BF7047401C490008BF20F00100D0
:100C6000704710B4B0FA80FC00FA0CF050EA0104AE
:100C700004BF10BC704749B1CCF1200421FA04F440
:100C800011FA0CF118BF012121430843A3EB0C0119
:100C9000CB1D4FEA00614FEA102042BF002010BC7C
:100CA000704700EBC35010440029A4BF10BC70472C
:100CB000401C490008BF20F0010010BC704770B50F
:100CC0008C1810F8015B15F0070301D110F8013BF7
:100CD0002A1106D110F8012B03E010F8016B01F87E
:100CE000016B5B1EF9D12B0705D40023521E0DD4D6
:100CF00001F8013BFAE710F8013BCB1A921C03E024
:100D000013F8015B01F8015B521EF9D5A142D8D35B
:100D1000002070BDFEE700207047002070470000F3
:100D200010B500220449054801F00AFF04490348B0
:100D300001F000FF002010BD64110020D802002047
:100D40007C0D002010B5044603F016FF054AC2E9E9
:100D500000012146044801F0EDFE034801F0CEFEFB
:100D6000002010BD10000020D8020020094A10B554
:100D7000D2F81822D2F814220AB1012010BD0A4676
:100D80000146044801F0DCFEBDE81040014801F0D6
:100D900017BF0000D8020020704700002DE9F84F6F
:100DA000DFF890A100220AF1040B144601274FF04E
:100DB0000F090BF1040E00BF0B6807FA04F52B4076
:100DC000AB4274D1DFF870C14E68A6EB0C086645E3
:100DD0002BD00DDC032E34D005DC36B3012E19D018
:100DE000022E2FD11BE0112E16D0122E2AD119E07F
:100DF000B8F5881F19D006DCB8F5803F15D0B8F5D6
:100E0000801F1FD111E0B8F5001F0ED0B8F5041FE8
:100E100018D10AE0CA6815E0CA68121D12E0CA6853
:100E200008320FE0CA680C320CE08A682AB1012A45
:100E30004FF0080203D0456104E0042202E005619E
:100E400000E00022FF2B01D8064601E000F1040675
:100E50004FEA840501D9A5F12005D6F800C009FAAA
:100E600005F82CEA080C02FA05F54CEA050CC6F860
:100E700000C04D68ED0057D5304DAE6946F0010613
:100E8000AE61AD6924F0030605F0010500952C4D17
:100E900006EB050CDCF80850A6074FEA167809FAAD
:100EA00008F6B543274EB04202D1002610E03BE0E1
:100EB000254EB04201D101260AE0244EB04201D1B4
:100EC000022605E0224EB04201D1032600E00426AE
:100ED00006FA08F62E43CCF808604D68DAF8006090
:100EE000ED03554601D51E4300E09E432E604D683C
:100EF000DBF80060AD035D4601D51E4300E09E4374
:100F00002E604D68DEF80060ED02754601D51E4387
:100F100000E09E432E604D68AD020E4D2E6801D557
:100F20001E4300E09E432E60641C102CFFF444AF6F
:100F3000BDE8F88F000401400000111000100240CD
:100F40000000014000080140000C01400010014079
:100F5000001401400C040140014880687047000003
:100F60006400002002488168027811448160704763
:100F700064000020074810B5016841F010010160CD
:100F8000032000F09DF8002000F006F800F024F89F
:100F9000002010BD0020024070B50D4D04464FF4F6
:100FA0007A712878B1FBF0F00A490968B1FBF0F0DA
:100FB00000F0D3FD48B9102C07D200222146501E64
:100FC00000F05EF800206C6070BD012070BD000074
:100FD0006400002070000020214808B5816941F0BC
:100FE00001018161816901F001010091C16941F054
:100FF0008051C161C06900F080500090032000F072
:101000005FF8002211466FF00B0000F039F8002263
:1010100011466FF00A0000F033F8002211466FF01D
:10102000090000F02DF800221146501F00F028F8AA
:1010300000221146101F00F023F800221146901ED6
:1010400000F01EF800221146501E00F019F8054865
:10105000416821F0E06141F00071416008BD00008D
:10106000001002400000014000F01F0201219140E9
:101070004009800000F1E020C0F800117047000036
:10108000F0B40E4B1B680C46C3F30223C3F10705F3
:10109000042D00D90425191D072901D2002300E0E1
:1010A000DB1E012606FA05F1491E214099409E40AB
:1010B000761E16403143F0BC01F0C2B80CED00E0E2
:1010C000064900F0070208684FF6FF03184040EA9F
:1010D0000220034A10430860704700000CED00E056
:1010E0000000FA0510B50C0605D501F07F0100EBF4
:1010F0004110283003E000EB411000F50A7099B26E
:1011000032B101228272C180190C0181002010BD10
:10111000002282728180F9E7704700EB4112D0F81B
:101120005C04D26B01F0EABE00EB4112D0F85C0423
:10113000D2F83C2201F037BF10B504460A460B0630
:1011400001F07F0004EB401101D5283101E001F5E9
:101150000A710870D009487094F82804012809D051
:10116000012084F82804206802F022FB002084F883
:10117000280410BD022010BD70B50A4604460906B9
:1011800002F07F0003D504EB4011283103E004EBAB
:10119000421101F50A7100258D700870D009487060
:1011A00094F82804012809D0012084F82804206834
:1011B00002F0ACFB84F82854002070BD022070BD02
:1011C00001F00F0100EB4110B0F8440280B270470B
:1011D00070B504460D460E0601F07F0004EB401189
:1011E00001D5283101E001F50A710870E80948705D
:1011F0000A61CB7094F82804012809D0012084F8F2
:101200002804206802F0A4F9002084F8280470BDA6
:10121000022070BD70B50C4601F07F0500EB451152
:10122000C1E98F230022C1F8442281F8292281F8E4
:10123000285201F50A716206006802F0C1FB002025
:1012400070BD70B50D460446090605F07F0003D554
:1012500004EB4011283103E004EB451101F50A715C
:1012600001228A700870E809487094F8280401285F
:1012700007D084F82824206802F07DFB680602D09D
:1012800006E0022070BD04F22C41206802F03CFB15
:10129000002084F8280470BD70B50C4601F07F056D
:1012A00000EB4511C1E90F2300224A64012281F8B5
:1012B000292001F8285F6206006802F081FB002007
:1012C00070BD10B50446006802F05CFC000402D555
:1012D000204600F0C5FF206802F054FC40050CD504
:1012E000206830F8441F21F480610180204600F01E
:1012F000EDF80021204600F0FEF8206802F042FCE4
:10130000400405D5206830F8441F21F48041018055
:10131000206802F037FC800405D5206830F8441FAF
:1013200021F400510180206802F02CFCC00414D587
:10133000206830F8401F21F004010180206830F857
:10134000401F21F008010180204600F0CCF8206801
:1013500030F8441F21F480510180206802F012FC13
:1013600000051AD5206830F8401F41F008010180BF
:10137000206830F8441F21F400610180206830F8B3
:10138000401F41F004010180206802F0FBFBC043D4
:10139000C00402D5204600F0E3F8206802F0F2FB1A
:1013A000800508D5206830F8441F21F400710180C1
:1013B000204600F09CF8206802F0E4FBC00505D54B
:1013C000206830F8441F21F48071018010BD0000B6
:1013D0002DE9F04186B004004FF0000504D094F8E8
:1013E0002904002620B108E0012006B0BDE8F08104
:1013F00084F82864204600F04BF8032084F8290480
:10140000206802F07AFA04F1100114228846684636
:10141000FEF798FE94E80F0002F0C8F9002120685A
:1014200002F0C3FB5FF0010704EB451080F8297060
:1014300000F8285F8581C670066146616D1C866173
:101440000F2DF1D35FF0000004EB401181F8296209
:1014500081F82802888681F82B62C1F83862C1F8C9
:101460003C62401CC1F840620F28EDD31422414673
:101470006846FEF767FE94E80F0002F02FFA84F842
:10148000246084F82974206802F026FA0020ACE772
:1014900008B500680B49884212D10B48C16941F474
:1014A0000001C161C069002200F4000000901146F3
:1014B0001420FFF7E5FDBDE808401420FFF7D4BD78
:1014C00008BD0000005C00400010024010B504465A
:1014D0000121D0F85C0401F055FED4F85C04BDE8AD
:1014E000104001F01EBED0F85C0401F039BED0F807
:1014F0005C0401F03BBE10B5044690F828040128B6
:101500000BD0012084F8280484F82410206802F00D
:101510004EFB002084F8280410BD022010BDD0F836
:101520005C2400F22C41104601F03FBE10B5044689
:1015300090F82804012810D0012084F828040146DE
:101540002046FFF7E9FD206802F0C4F9206802F0A8
:101550000CFB002084F8280410BD022010BD000000
:1015600010B50446D0F85C0401F06CFEA0690028B8
:1015700004D00348016841F00601016010BD00007D
:1015800010ED00E02DE9F84305460078354CC00722
:1015900054D0E0690026C00008D4E06940F08050D3
:1015A000E061E069012600F0805000902E4801685B
:1015B000C90512D40168804641F480710160FFF7CB
:1015C000CBFC074605E000BFFFF7C6FCC01B642844
:1015D00023D8D8F80000C005F6D5206A10F4407072
:1015E00021D0A98801F4407181421CD0206A1F4992
:1015F000012220F440700A6000220A602062C007C5
:1016000011D0FFF7A9FC074641F2883808E000BF77
:10161000FFF7A2FCC11B414502D90320BDE8F883B6
:10162000206A8007F4D5206A696820F44070084376
:1016300020621EB1E06920F08050E06128788007C8
:1016400005D56068A96820F44040084360602878A8
:10165000C00605D56068E96820F480000843606032
:101660000020DBE7001002400070004040044242CE
:101670002DE9F047DFF83C8105460E46D8F800001A
:1016800000F00700B0420CD2D8F8001021F007019A
:101690003143C8F80010D8F8000000F00700B0424D
:1016A00063D12878444C800705D56068A96820F08C
:1016B000F000084360602878C00745D068680128BA
:1016C00016D02168022816D0890700294DDA6168F2
:1016D00021F0030101436160FFF73EFC69680746A2
:1016E00041F2883001290FD00229814619D027E024
:1016F00021688903E9E78901E7E700BFFFF72CFCD0
:10170000C11B494501D918E081466068C0F38100DA
:101710000128F3D118E000BFFFF71EFCC11B4945AB
:101720000BD86068C0F381000228F5D10CE000BF3F
:10173000FFF712FCC11B494502D90320BDE8F08721
:10174000606810F00C0FF3D1D8F80010404601F09B
:101750000701B1420BD9016821F007013143016053
:10176000006800F00700B04201D00120E6E72878C9
:10177000400705D56068E96820F4E06008436060D0
:101780002878000706D56068296920F4605040EA8F
:10179000C100606000F01CF86168084AC1F30311E1
:1017A000515CC840064908600020FFF7F5FB0020A7
:1017B000C4E7000000200240001002403C4E000838
:1017C0007000002001480068704700007000002091
:1017D00012A185B00FC98DE80F0014A0144A00684B
:1017E00004905168134801F00C03042B10D0082B0F
:1017F0000ED1C1F38343C9031DF803000AD5516814
:1018000004AAC1F34041515C0A4A5043B0FBF1F0D5
:1018100005B0704708494843FAE700000203040591
:10182000060708090A0B0C0D0E0F1010010200002C
:101830000010024000127A0000093D002DE9F84F27
:1018400004460078B94DC00748D06868C0F38100ED
:10185000012807D06868C0F38100022809D16868B0
:10186000C00306D52868800338D5606800286FD08B
:1018700034E06068B0F5803F0BD010B1B0F5A02F18
:1018800011D0286820F480302860286820F4802057
:1018900002E0286840F480302860606888B1FFF773
:1018A0005BFB064609E0286840F480202860F0E7EA
:1018B000FFF752FB801B642875D828688003F7D592
:1018C0000CE0FFF749FB064605E000BFFFF744FBCD
:1018D000801B6428F0D828688003F7D42078944EC1
:1018E00080074FF001094FF000083BD5686810F001
:1018F0000C0F07D06868C0F38100022809D168681E
:10190000C00306D42868800714D5206901281FD198
:1019100010E02069B0B1C6F80090FFF71DFB074644
:1019200005E000BFFFF718FBC01B0228C4D82868D9
:101930008007F7D52868616920F0F80040EAC10007
:1019400028600FE0C6F80080FFF706FB074606E0B8
:10195000E9E000BFFFF700FBC01B022823D828687E
:101960008007F7D4207800072CD57248A169D9B137
:10197000C0F80090FFF7F0FA074604E0FFF7ECFA32
:10198000C01B02280FD8686A8007F7D56A484FF451
:10199000FA510068B0FBF1F0009000BF0098411EC2
:1019A0000091FAD20EE080E0C0F80080FFF7D4FA90
:1019B000074604E0FFF7D0FAC01B022875D8686A12
:1019C0008007F7D42078400760D5E8690027C00079
:1019D00008D4E86940F08050E861E869012700F028
:1019E0008050009055480168C90513D401688346AA
:1019F00041F480710160FFF7AFFA824606E000BF54
:101A0000FFF7AAFAA0EB0A0064284ED8DBF8000022
:101A1000C005F5D5E06801280AD008B1052813D023
:101A2000286A20F001002862286A20F0040002E001
:101A3000286A40F001002862E06841F2883B98B1D2
:101A4000FFF78AFA82460BE0286A40F00400286219
:101A5000EEE700BFFFF780FAA0EB0A0159455AD81C
:101A6000286A8007F6D50CE0FFF776FA824605E093
:101A7000FFF772FAA0EB0A0159454CD8286A800793
:101A8000F6D41FB1E86920F08050E861E06988B3BE
:101A90006968C1F38101022945D00228C6F8608037
:101AA00004D0FFF759FA044638E034E0FFF754FA5F
:101AB000074604E0FFF750FAC01B02282BD828681D
:101AC0008001F7D4206AB0F5803F05D16868A1682D
:101AD00020F4003008436860D4E9080108436968CD
:101AE00021F4741108436860C6F86090FFF734FA77
:101AF000044606E015E000BFFFF72EFA001B02289F
:101B000009D828688001F7D50BE000BFFFF724FA59
:101B1000001B022802D90320BDE8F88F2868800145
:101B2000F4D40020F8E70120F6E70000001002409E
:101B300000004242800442427000002000700040D9
:101B40004FF0E0210428086903D020F00400086168
:101B5000704740F00400FAE7704710B5401EB0F13E
:101B6000807F01D3012010BD4FF0E02460610F2180
:101B7000601700F065FB0020A061072020610020B5
:101B800010BD10B5FFF7E8FF10BD7047704710B5E6
:101B900090F83C20012A25D0012280F83C20CA6818
:101BA0008C6822F4407222434C6822F48062224303
:101BB0000C6822F4006222430C6922F48052224312
:101BC0004C6922F4005222438C6922F48042224361
:101BD00022F40041026800232143516480F83C3024
:101BE000002010BD022010BD30B590F83C20012A25
:101BF00020D0012280F83C20022380F83D30036889
:101C00005C6824F070045C6003685C680D682C43B9
:101C10005C6003689C6824F080049C6003689C6896
:101C200049680C439C6080F83D20002180F83C10FE
:101C3000084630BD022030BD10B5044600680422BD
:101C400000F0CDFD2068416C41F400414164206802
:101C5000016841F001010160002010BD10B50400D1
:101C600003D094F83D0010B107E0012010BD002022
:101C700084F83C00204600F00DF8022084F83D0076
:101C8000211D206800F06AFD012084F83D0000203D
:101C900010BD000008B500680B49884212D10B48FE
:101CA000816941F4006181618069002200F4006073
:101CB000009011461920FFF7E3F9BDE8084019200C
:101CC000FFF7D2B908BD0000002C0140001002400F
:101CD0000168CA6842F00102CA600068016841F008
:101CE000010101600020704770B5044690F83C0087
:101CF000012817D0012584F83C50022084F83D00CB
:101D00002068826822F0770222F47F4282600868AD
:101D1000502837D00DDC202859D005DC88B3102896
:101D200041D151E0022070BD302853D040283AD133
:101D30003FE060282ED070280BD0B0F5805F03D034
:101D4000B0F5005F2FD110E02068816821F0070115
:101D500015E0CB68D1E90121206800F04BFD216836
:101D6000886840F0770088601DE0CB68D1E90121E8
:101D7000206800F03FFD2068816841F48041816067
:101D800011E01EE0CA684968206800F0E7FD5021B4
:101D9000206806E0CA684968206800F0F0FD60210C
:101DA000206800F031FD84F83D50002084F83C00AC
:101DB00070BDCA684968206800F0D0FD40212068E5
:101DC000EFE700212068ECE710212068E9E72021F7
:101DD0002068E6E730212068E3E7704770B50446E5
:101DE000006801694FF00005C943890715D4C1682F
:101DF000C943890711D4E91E0161012020772068B9
:101E000080698007204602D0FFF7E7FF04E000F07A
:101E1000B9F8204600F03BF9257720680169C943ED
:101E2000490717D4C168C943490713D46FF00401A7
:101E30000161022020772068806910F4407F2046ED
:101E400002D0FFF7CAFF04E000F09CF8204600F043
:101E50001EF9257720680169C943090716D4C168AE
:101E6000C943090712D46FF00801016104202077EB
:101E70002068C0698007204602D0FFF7AEFF04E06B
:101E800000F080F8204600F002F92577206801690B
:101E9000C943C90617D4C168C943C90613D46FF032
:101EA00010010161082020772068C06910F4407F8C
:101EB000204602D0FFF791FF04E000F063F82046CF
:101EC00000F0E5F8257720680169C943C90708D102
:101ED000C168C943C90704D1891E0161204600F0C9
:101EE000EFF820680169C943090609D4C168C943EC
:101EF000090605D46FF0800101612046FFF745FE19
:101F000020680169C943490609D4C168C943490623
:101F100005D46FF040010161204600F0D2F820683E
:101F20000169C94389060BD4C168C943890607D42E
:101F30006FF0200101612046BDE87040FFF726BE2A
:101F400070BD00007FB500680B49884213D14FF483
:101F500060400224CDE90004032569460395074843
:101F6000FEF71CFF4FF4E060CDE9000469460395DD
:101F70000348FEF713FF7FBD002C0140000C014019
:101F800000080140704770B5044690F83C000D46CB
:101F900001280DD0012684F83C60022084F83D0021
:101FA00042B1042A18D0082A2AD00C2A4DD139E08F
:101FB000022070BD206800F02FFC2068816941F08C
:101FC000080181612068816921F004018161206834
:101FD00081692A69114311E0206800F045FC2068FE
:101FE000816941F4006181612068816921F4806127
:101FF0008161206881692A6941EA0221816124E0C6
:10200000206800F05DFC2068C16941F00801C161F1
:102010002068C16921F00401C1612068C1692A6991
:10202000114311E0206800F077FC2068C16941F499
:102030000061C1612068C16921F48061C1612068CB
:10204000C1692A6941EA0221C16184F83D6000202A
:1020500084F83C0070BD10B5040003D094F83D0036
:1020600010B107E0012010BD002084F83C0020469C
:1020700000F00CF8022084F83D00211D206800F0DB
:102080006DFB012084F83D00002010BD70477047B3
:1020900010B504460068012200F096FB074920684D
:1020A000884203D1416C41F40041416420680168D9
:1020B00041F001010160002010BD0000002C014032
:1020C00070477047FEE700000D4808B5816941F090
:1020D00020018161816901F020010091816941F055
:1020E00008018161816901F008010091816941F075
:1020F00004018161806900F00400009008BD0000C7
:102100000010024010B5394894B037490024C0E9A6
:10211000001440F2E731C0E9024104614461846186
:10212000FFF79CFD18B14C2131A001F05AFD4FF48E
:1021300080500E900EA92D48FFF7D6FD18B1522100
:102140002BA001F04EFD2948FFF785FF18B157215C
:1021500027A001F046FD129412A924481394FFF71A
:1021600043FD18B15E2122A001F03BFD6020CDE9C6
:1021700000040294039404940594002269461B48C9
:102180000694FFF700FF18B16A2119A001F029FD9C
:10219000042269461548FFF7F6FE18B16F2114A016
:1021A00001F01FFD082269461048FFF7ECFE18B148
:1021B00074210FA001F015FD079423200894CDE9A8
:1021C00009404FF40050CDE90B4007A907480D9492
:1021D000FFF7DDFC18B1802105A001F002FD0348E6
:1021E000FFF7B0FE14B010BD002C01409801002094
:1021F0002E2E2F436F72652F5372632F74696D2ECD
:102200006300000010B500220849094800F041FEB3
:102210000849074801F043F80749054800F082FCE7
:10222000BDE81040024801F087B8000020000020FF
:10223000D80200205401002054000020FEE770471F
:102240000907090E002806DA00F00F0000F1E0206F
:1022500080F8141D704700F1E02080F800147047EA
:102260002DE9FC5F4FF000080446ADF80480ADF89E
:10227000008048F60F7B4FF002094FF4806692E130
:10228000BDF8041011F00F072BD030F82710ADF86F
:102290000010BDF80010090478D530F8272040F66A
:1022A0008F710A4020F8272004EB471595F8320279
:1022B00005F50A750028206869D0297830F82120B2
:1022C00052047DD5B0F8503009EBC101194406EB3A
:1022D0004101415AC1F309015FEA010A71D0EA885C
:1022E000D0E0BDF80410C9062AD4018801EA0B0128
:1022F0000180206804F12805B0F850202B7809EB04
:10230000C301114406EB4101405AC0F30900606467
:10231000E16B0844E06300212046FEF7FEFE94F8DE
:1023200024000028ABD0A8690028A8D194F8240084
:10233000216840F08000A1F84C0084F8248032E14C
:10234000018804F50A75ADF80010BDF80010090504
:102350001ED5B0F850302978062202EBC10119448D
:1023600006EB4101405A04F22C41C0F30903EB6132
:10237000AA88206801F00AFC2068018840F68F7264
:10238000114001802046FFF7CAF80CE1A0E055E0BB
:10239000BDF800100904D2D5028840F68F710A40BA
:1023A00002802068B0F850302978062202EBC10183
:1023B000194406EB4101405A83059B0DEB6101E096
:1023C00051E063E008D0AA886969206801F0DEFB6B
:1023D000E96968690844686100212046FEF7A4FEA7
:1023E0002068B0F85010891D06EB410101442869AE
:1023F0003E280CD9C0F34F12C00601D1521E92B232
:102400004FF6FF7000EA822040F4004009E0C0F37C
:102410004F02C00701D0521C92B24FF6FF7000EA83
:1024200082200860216808884BF68F72104080F483
:10243000405048F2800210430880B4E0B0F85020C9
:102440002B78062101EBC301114406EB4101415AEF
:10245000C1F309015FEA010A24D0AA8853466969D9
:1024600001F094FB1EE0B0F85020062303EBC101FD
:10247000114406EB4101415AC1F309015FEA010A27
:1024800004D02A895346696901F080FB29782068C5
:1024900030F8213048F68F72134048F2C0021343DF
:1024A00020F82130E96901EB0A00E861696901EB74
:1024B0000A026A61AB6913B12869504504D92978C9
:1024C0002046FEF731FE03E029782046FEF7A2FE03
:1024D000BDF80000000666D5206804EB471530F80B
:1024E000271001EA0B0120F8271095F83200283553
:1024F0000028206812D0297830F82120B0F8503018
:1025000052061ED509EBC101194406EB4101405AA0
:1025100083059B0DEB6124D0EA881EE0B0F85030B3
:102520002A7809EBC201194406EB4101405A8305A0
:102530009B0DEB6121D0AA886969206801F03DFB01
:102540001BE0062202EBC101194406EB4101405A8F
:1025500083059B0DEB6104D02A896969206801F02D
:102560002CFB2978206830F8212048F68F731A4018
:102570004CF280031A4320F821202068B0F8502044
:102580002B7809EBC301114406EB4101405AC0F31B
:102590000900E86169690A186A612978AB6920460F
:1025A00063B1FEF779FE2068B0F84410ADF804106E
:1025B00009043FF565AE0020BDE8FC9FFEF7ADFDC8
:1025C000F1E77047704700007CB5194D2888401C22
:1025D00080B22880B0F5FA7F14D1002028801548F9
:1025E000D0E90010CDE90010134814A1D0E9002370
:1025F000194801F0F7FA18480024015D41B1641C44
:10260000FF2CFAD9FEF7AEFCBDE87C40FFF7B9BA63
:10261000204602F08DFB22460F496860FDF792FDCF
:10262000A1B26868FEF7A2FB686802F0BBFAE9E7AE
:10263000180000201000002008000020416E676C88
:10264000653A20252E326620537465703A20253075
:102650002E313066200D0A00D801002030B593B02D
:1026600001210804CDE90010002402940225049100
:10267000CDE907504FF4E01009906846FFF7DEF807
:1026800000B1FEE70F20CDE90A054FF48060CDE9E7
:102690000C4002210AA80E94FEF7EAFF00B1FEE703
:1026A00010200F9012940FA8FEF76CFF00B1FEE708
:1026B000FFF788F84FF47A71B0FBF1F0FFF74DFAAD
:1026C0000420FFF73DFA00221146501EFEF7D8FC09
:1026D00013B030BD0D48016841F00101016041684F
:1026E0000B4A1140416001680A4A114001600168CB
:1026F00021F480210160416821F4FE0141604FF422
:102700001F0181600449C003086070470010024047
:102710000000FFF8FFFFF6FE08ED00E010B50B4CDF
:1027200000220B4BD4E90001FDF774FE08D2D4E976
:102730000023084CD4E90001FDF716FDC4E90001AF
:10274000BDE810400448FFF749BB0000100000201E
:102750000000F03F0800002098010020F0B502685A
:10276000164B174C174D4FF08047984205D0B84292
:1027700003D0A04201D0A84203D122F070064A68DB
:102780003243984205D0B84203D0A04201D0A842BB
:1027900003D122F44074CA68224322F080044A69BB
:1027A000224302608A68C2620A688262984201D14A
:1027B0000969016301214161F0BD0000002C014065
:1027C000000400400008004010B50123046A8B405B
:1027D0009C430462036A8A401343036210BD10B530
:1027E0000423046A8B409C430462036A8A401343B7
:1027F000036210BD10B5846842EA032224F47F44CA
:102800000A432243826010BD826822F070020A43AC
:1028100042F007018160704730B5026A22F0010280
:102820000262026A4368846924F073050C682C43D1
:1028300022F002058A682A430A4DA8420BD122F0F1
:102840000805CA6823F440732A434D6922F0040244
:102850001D438B692B434360846149684163026275
:1028600030BD0000002C014030B5026A22F0100299
:102870000262026A436884690D6824F4E64444EA0B
:1028800005248D6822F0200242EA05120B4DA84271
:102890000ED1CD6822F0800242EA05124D6923F480
:1028A000406343EA85038D6922F0400243EA8503D1
:1028B0004360846149688163026230BD002C01403D
:1028C00030B5026A22F480720262036A4268C46907
:1028D00023F4007324F073050C682C438D6843EADD
:1028E00005230C4DA8420ED1CD6823F4006343EAC2
:1028F00005234D6922F4405242EA05128D6923F402
:10290000806342EA05124260C4614968C1630362A0
:1029100030BD0000002C014030B5026A22F4805224
:102920000262046A4268C3690D6823F4E64343EA1D
:1029300005238D6824F4005444EA0534064DA8426A
:1029400004D14D6922F4804242EA85124260C3619B
:1029500049680164046230BD002C014010B5036A6F
:10296000046A24F001040462846924F0F00444EA57
:10297000021423F00A020A438461026210BD10B5FA
:10298000036A23F0100303628369046A23F470432B
:1029900043EA023224F0A00343EA0111826101629A
:1029A00010BDD0F8180220B10021C0F8141208465A
:1029B00070470220704770B50546D0F8184200F005
:1029C00027FBC4F80C02D5F8180248B1D5F81C1240
:1029D000D4F80402CA6804F503719047002070BD62
:1029E000022070BD70B504460025812100F076FA02
:1029F0000121204600F072FA8221204600F06EFA92
:102A0000D4F8180250B1D4F81C0204F506744068DA
:102A10008047206800F096FD00202060284670BDA9
:102A200010B5D0E9864159B194F80002FF2807D0CB
:102A30008B6894F8012221469847FF2084F8000211
:102A4000002010BD0A210180004870477C00002052
:102A50004321018000487047CC00002043210180C1
:102A600000487047880000204321018000487047DB
:102A7000100100202DE9F0410446007C00254FF4B0
:102A8000007670B3402302228121204600F026FB0D
:102A9000402302220121204600F020FB08230322CC
:102AA0008221204600F01AFB4FF4077000F04CFD25
:102AB000C4F81802F0B10746D4F81C020068804739
:102AC0000020C7F81402C7F81802207CD7F80422A7
:102AD00090B140230121204600F013FB2846BDE8B9
:102AE000F081FFE7334602228121204600F0F6FA0A
:102AF0003346CEE70125F1E73346EBE710B5D0F8D2
:102B0000181269B1027C002AD1F8042205D04023B2
:102B1000012100F0F6FA002010BD4FF40073F7E732
:102B2000022010BD02460220002902D00020C2F877
:102B30001C127047D0F81802C0F804120020704729
:102B4000D0F81802C0F81022C0F808120020704710
:102B500070B50646D0F8185208780C4610F060019F
:102B600021D0202927D1E288AAB10006607807D5B4
:102B7000D6F81C128B6829469847E288294617E048
:102B800085F80002A07985F80102E28829463046DE
:102B900000F050F80FE0D6F81C12607800228B6825
:102BA0002146984707E060780A2804D103490122AA
:102BB000304600F059F8002070BD00007800002079
:102BC00010B5D0F8181289B1D1F814220AB1012039
:102BD00010BD0122C1F81422B1F8102293B2D1F82D
:102BE0000822812100F037FB002010BD022010BD1B
:102BF00010B5D0F8142252689047002010BD13463B
:102C000010B50A46002100F07CFA002010BD1346E2
:102C100010B50A46002100F01EFB002010BD10B5C3
:102C20000446802100F0EEFA2046BDE81040002165
:102C300000F0E8BA10B50323C0F80821C0F8F43159
:102C4000C0F80C2113460A46002100F05AFA002071
:102C500010BD10B505210023C0F8F4111A4619461D
:102C600000F04FFA002010BD10B502238261C0F8B9
:102C7000F431C26113460A46002100F0ECFA00204C
:102C800010BD10B504210023C0F8F4111A461946EE
:102C900000F0E1FA002010BD10B50A46024903A079
:102CA00000F0D4F8004810BD7C0B002043444320C2
:102CB000436F6E6669670000122008800048704705
:102CC0004000002010B50A46024903A000F0BEF8FB
:102CD000004810BD7C0B002043444320496E7465BE
:102CE0007266616365000000042008800048704738
:102CF0003C00002010B50A46024903A000F0A6F8E7
:102D0000004810BD7C0B002053544D6963726F6501
:102D10006C656374726F6E696373000010B50A4668
:102D2000024903A000F092F8004810BD7C0B00207F
:102D300053544D3332205669727475616C20436F61
:102D40006D506F727400000010B50A46024903A06E
:102D500000F07CF8004810BD7C0B00203030303093
:102D6000303030303030314100000000F8B50446DA
:102D700048880D46010A08294BD2DFE801F04A04D1
:102D800009174A4A4048D4F81012207C0A6832E0F9
:102D9000207C02260028D4F8140205D0C16A6846B7
:102DA00088470146467041E0816AF8E7C0B20628CC
:102DB0002FD2DFE800F003080D12171CD4F8101210
:102DC000207C4A6817E0D4F81012207C8A6812E050
:102DD000D4F81012207CCA680DE0D4F81012207CC0
:102DE0000A6908E0D4F81012207C4A6903E0D4F89C
:102DF0001012207C8A6969469047014616E0207CC3
:102E000038B9D4F81402416B68468847F5E7207C4E
:102E100020B129462046FFF702FFF8BDD4F814027E
:102E2000016B68468847014607204870BDF80000DE
:102E30000028F2D0EA88002AEFD0824200D9024668
:102E4000ADF800202046FFF70FFFF8BD70B5002356
:102E500000281DD00446002502E06D1CEDB2641C64
:102E60002678002EF9D1022404EB45041480CC54BA
:102E70005B1C0322CA5400245B1C06E0CA545B1C82
:102E8000DAB28C54521CD3B2401C0278002AF5D11D
:102E900070BD10B580B1D0F8143213B10023C0F862
:102EA000143209B1C0F81012012180F8FC1102702F
:102EB00000F0B2F8002010BD022010BD10B50024B3
:102EC000D0F82002FEF758F930B1012801D00228CD
:102ED00001D0022400E00124204610BD10B50024DA
:102EE000D0F82002FEF728F930B1012801D00228DD
:102EF00001D0022400E00124204610BD2DE9F0415C
:102F00001746044641B1D4F8140242698AB394F8D2
:102F1000FC01032842D043E0D4F8F411002504F169
:102F20001400022933D1D0E902639E4207D9F31A73
:102F300083609AB239462046FFF769FE12E0406886
:102F4000B0FBF3F103FB1101A1B9984212D3D4F8FD
:102F5000F81188420ED2002211462046FFF757FE94
:102F6000C4F8F85100231A461946204600F0C9F863
:102F70000DE012E0D4F81402C16829B194F8FC0104
:102F8000032801D1204688472046FFF762FE94F8C7
:102F90000002012804D184F8005201E02046904745
:102FA0000020BDE8F08170B51546044641B1D4F863
:102FB000140282693AB394F8FC01032824D025E076
:102FC000D4F8F41104F5827003291FD1D0E902214D
:102FD0008A420BD9531A83600846834200D30346C2
:102FE0009AB229462046FFF70AFE0FE0D4F81402F1
:102FF000016929B194F8FC01032801D120468847D2
:103000002046FFF73EFE01E020469047002070BDBD
:10301000D0F82002FEF7D4B810B520490446C1F814
:103020005C04C0F820121E48086008204860022096
:1030300088600320C86000208861C8610862084673
:10304000FEF7C6F920B14FF4977116A000F0C9FD44
:103050000022D4F820021823114604F50874FEF764
:1030600041F85823002280212068FEF73BF8C02356
:10307000002281212068FEF735F84FF48873002282
:1030800001212068FEF72EF84FF480730022822180
:103090002068FEF727F8002010BD00001C07002064
:1030A000005C00402E2E2F5553425F444556494345
:1030B000452F757362645F636F6E662E6300000058
:1030C0000A06D0F8200201F07F0100EB411002D582
:1030D00090F82A00704790F82A02704770B51D4694
:1030E00013460024D0F820022A46FEF771F830B1CA
:1030F000012801D0022801D0022400E0012420464A
:1031000070BD10B50024D0F82002FEF783F830B16E
:10311000012801D0022801D0022400E00124204629
:1031200010BD70B50022044640231146FFF7D6FFBC
:1031300040252B46002280212046C4F81051FFF77D
:10314000CDFF0120256284F8FC01D4F8180228B1D3
:10315000D4F814022179426820469047002070BDBF
:1031600090F8FD1180F8FC110020704710B590F820
:10317000FC11032904D1D0F81412C96901B18847A0
:10318000002010BD01740020704710B50024D0F855
:103190002002FEF7B0F930B1012801D0022801D099
:1031A000022400E00124204610BD70B5044600F55D
:1031B0000270054600F05FF80120C4F8F401B4F88D
:1031C0000E02C4F8F80194F8080210F01F010AD0AA
:1031D00001290DD0022910D000F08001204600F016
:1031E00011F8002070BD2946204600F0AAF8F8E743
:1031F0002946204600F08CF9F3E72946204600F0E6
:1032000019F9EEE710B50024D0F82002FEF719F8FE
:1032100030B1012801D0022801D0022400E00124AD
:10322000204610BD10B50024D0F82002FEF77EF92C
:1032300030B1012801D0022801D0022400E001248D
:10324000204610BD90F8FC1180F8FD11042180F893
:10325000FC110020704710B50024D0F82002FEF7C2
:103260001BF830B1012801D0022801D0022400E06F
:103270000124204610BD0A7802704A7842708A788C
:10328000CB7802EB032242800A794B7902EB0322CE
:1032900082808A79C97902EB0121C1807047024698
:1032A000002011B1C2F8141270470220704710B507
:1032B000D0F8142202241AB11268904700B90024F1
:1032C000204610BD70B50E461A4D89780446297007
:1032D000012928D894F8FC01022802D0032822D121
:1032E00005E099B10320616084F8FC0109E091B127
:1032F000606888420AD0C1B22046FFF779FC29787D
:1033000061602046FFF7D3FF02280CD02046BDE8BD
:103310007040FFF7B6BC022084F8FC0120466160D3
:10332000FFF766FCF2E731462046BDE87040FFF744
:1033300076BC00007400002010B5FFF773FF00207A
:1033400010BD2DE9F04100264B78012532460A2BAD
:1033500043D2DFE803F03C584251420805422A2795
:10336000FFF704FD63E004468888C8B9C888B8B987
:10337000887800F07F0794F8FC01032810D084F8C7
:10338000FE7139462046FFF700FF2046FFF779FC23
:103390001FB1022084F8FC0149E084F8FC5146E0AA
:1033A00020461AE0FFF78EFF41E0CB88012B14D1B5
:1033B00090F8FC31022B02D0032B0ED104E0826086
:1033C000012200F1080114E00122011D11E090F832
:1033D000FC21022A04D0032A02D0FFF720FC26E0B9
:1033E000C560D0F8041209B10321C160022200F1C6
:1033F0000C01FFF739FC1AE004464888012816D171
:10340000C4F804520BE0044690F8FC01022801D0F5
:103410000328C5D14888012809D1C4F80422D4F86A
:1034200014028268204690472046FFF72AFC304667
:10343000BDE8F08170B50D4604462878002609796C
:10344000C0F34110012806D06878A0B301281FD02E
:1034500003283FD107E0D4F81402294682682046A9
:103460009047002070BD94F8FC01022817D0032873
:103470002CD1688828B921B1802902D02046FFF7D5
:10348000C1FED4F81402294682682046904713E012
:1034900094F8FC01022802D0032817D103E0C9B137
:1034A00080291BD116E06888A0B9480604D02046C0
:1034B000FFF704FDE5E703E02046FFF7E2FB09E044
:1034C00094F8FC01022807D003280BD02946204697
:1034D000FFF7A5FB304670BD4806FBD02046FFF73E
:1034E00091FEF7E7080601F07F0004EB001501D517
:1034F000143501E005F582752046FFF7E1FD00B1C6
:1035000001202860022229462046FFF7ADFBE1E7B3
:1035100070B5054690F8FC010C4603280DD12079C2
:1035200001280AD8D5F81402826828469047E08816
:1035300030B92846FFF7A5FB02E02846FFF76FFBEE
:10354000002070BD7047000000487047FC04002058
:103550002DE9F047CC780A7848F68F1334B1012C66
:103560006DD0022C08D0032C13D10BE030F8224090
:103570001C4044F400730AE030F822401C4020F85C
:10358000224006E030F822401C4044F4C06320F89A
:1035900022300C7830F8245048F68F72154048F2EB
:1035A00080031D43254320F824508D7A48F6BF79C7
:1035B00004274BF68F7A48F2C0044CF28006EDB334
:1035C0000D7830F825C048F280180CEA020C4CEA5D
:1035D000080C20F825C0CD88B0F850C025F00105B2
:1035E00091F800800CEBC80C00EB4C0CCCF80054AC
:1035F0000D89B0F850C025F0010591F8008007EB67
:10360000C807674400EB4707C7F800544D78002D02
:103610000D7830F825704FEA47477DD0002F05DA46
:1036200030F825701740374320F825700D7830F8B2
:1036300025707F0608D530F8257001E024E01DE0F4
:103640001740274320F825700C7830F82450154097
:10365000354320F824500C7830F8242002EA09027F
:103660001A4320F824200A7830F8221001EA0A01CF
:10367000194320F822100020BDE8F08730F82240DE
:103680001C4044F4806382E74D78F5B18D88B0F832
:10369000506025F001050F7806EBC70600EB4606E3
:1036A000C6F800540D7830F82560760605D530F858
:1036B00025601640264320F825600A7830F822104D
:1036C00001EA090181F02001D2E78C88B0F850505E
:1036D00024F0010491F800C007EBCC073D4400EB57
:1036E0004505C5F80044B0F850400D78062707EBB3
:1036F000C5052C4400EB44070C694FF6FF7C07F529
:1037000080673E2C0CD9C4F34F15E40601D16D1E21
:10371000ADB20CEA852400E01EE044F4004407E06A
:10372000C4F34F05E40701D06D1CADB20CEA85244B
:103730003C600C7830F824506D0405D530F82450E6
:103740001540354320F824500A7830F8221001EA59
:103750000A0181F440518BE7002F05DA30F825701B
:103760001740374320F825700D7830F8256076062D
:1037700005D530F825601640264320F825600E78E0
:1037800030F826501540254320F826500C7830F8A4
:10379000242002EA0A0282F440521A4320F824202C
:1037A0000A7830F8221001EA090161E70020704729
:1037B0002DE9F04391F80A8091F801C00A7848F6A3
:1037C000BF774BF68F7948F2800348F2C0054CF280
:1037D000800648F68F74B8F1000F2ED0BCF1000FB0
:1037E00030F822C04FEA4C4C4ED0BCF1000F07DA43
:1037F00030F822C00CEA040C4CEA060C20F822C077
:103800000A7830F822C05FEA4C6C07D530F822C045
:103810000CEA040C4CEA050C20F822C00A7830F8B7
:1038200022502540354320F822500C7830F82420CF
:103830003A401A4320F824201BE0BCF1000F0ED0C0
:1038400030F82260760605D530F8226026402E43F7
:1038500020F822600A7830F8221039400EE030F863
:1038600022506D0405D530F822502540354320F80C
:1038700022500A7830F8221001EA0901194320F891
:1038800022100020BDE8F083BCF1000F07DA30F809
:1038900022C00CEA040C4CEA060C20F822C00A787C
:1038A00030F82260760605D530F8226026402E4397
:1038B00020F822600E7830F8262022402A4320F893
:1038C00026200C7830F8242002EA09021A4320F856
:1038D0002420BFE7002070470020704700B5012179
:1038E000A0F840100021A0F84010A0F84410A0F863
:1038F000501000F03AF9002000BD30F8401F21F4CC
:103900003D410180002070470020704730B54D7860
:103910000A78002D48F68F7430F8225048F2800360
:1039200012D06D0607D530F82250254048F2C00469
:10393000254320F822500A7830F8221048F6BF7448
:10394000214081F0300111E06D0407D530F822509C
:1039500025404CF28004254320F822500A7830F8A4
:1039600022104BF68F74214081F44051194320F806
:103970002210002030BD10B50A7848F2800352B101
:103980004978002930F8221010D048F6BF74214041
:1039900081F010010FE001884BF6BF72114081F4F5
:1039A000805181F010011943018007E04BF68F74BC
:1039B000214081F48051194320F82210002010BDCD
:1039C0002DE9F0410D460646896995F801C00023AE
:1039D000AA7A022728690C4648F28008BCF1010F38
:1039E00005D0814252D90446081AA8614FE08142AD
:1039F00003D90446081AA86100E0AB617AB12878BF
:103A000036F820104906B6F8501007EBC0000844FD
:103A100006EB4000C0F8004412D52A8911E0A3B299
:103A2000AA883046696900F0C8F8B6F850002978CD
:103A300007EBC101084406EB4000C0F800441CE05D
:103A4000EA88A3B23046696900F0B7F8687848F6AA
:103A50008F7110B1012807D00FE0287836F82020A8
:103A60000A4048F2C00105E0287836F820200A40D4
:103A70004CF280010A4326F82020297836F82100EC
:103A800048F6BF72104080F0300067E0AB6106235B
:103A90004FF6FF701AB1BCF1000F1BD056E0B6F81C
:103AA00050102A783E2C03EBC202114406EB41026F
:103AB00002F5806239D9C4F34F11E30632D000BF5A
:103AC00000EA812040F4004002E000BF00EA8120CB
:103AD00010603BE0B6F850102A783E2C07EBC2028B
:103AE000114406EB410202F580620BD9C4F34F1179
:103AF0005FEAC46C01D1491E89B200EA812141F418
:103B0000004108E0C4F34F015FEAC47C01D0491CC6
:103B100089B200EA8121116069780029BFD00129AA
:103B20000AD013E0491E89B2CAE7C4F34F01E30784
:103B3000CCD0491C89B2C9E7B6F85000297807EB08
:103B4000C101084406EB4000C0F80044297836F86B
:103B500021004BF68F72104080F4405040EA08007C
:103B600026F821000020BDE8F08130F8401F41F424
:103B70003F410180002070470148FDF7A2BB0000D3
:103B80001C070020B0F84400704700005B1C00EBED
:103B900042005B0800F5806006D000BF30F8042BBF
:103BA00021F8022B5B1EF9D170470020704711B934
:103BB0008021A0F84C100020704710B55B1C00EB72
:103BC00042005B0800F5806009D011F8012B5B1EF4
:103BD00011F8014B42EA042220F8042BF5D110BD64
:103BE000FEE7FEE70FB4084B10B504A902AA03983C
:103BF00000F026FC044602A9002000F0B8FF204691
:103C000010BC5DF814FB00006F4B0008490050EA3F
:103C1000C12018BF04204A0D18BF40F0010040F237
:103C2000FF72B2EB515F08BF40F00200012808BFED
:103C3000052070472DE9F74F144694B00021C4E9E0
:103C400002111599079121F00045C9498D4206DC02
:103C50001599C4E9000117B00020BDE8F08FC549EF
:103C6000DFF814A3A9423CDD0799C44E0029C44FD4
:103C7000C44A1599534619DDFCF717FB554506D084
:103C8000C14AC24BFCF711FBC4E900010AE04FF046
:103C9000D352BE4BFCF709FB32463B46FCF705FB13
:103CA000C4E9000117B00120BDE8F08FFCF75CFA11
:103CB000554506D0B44AB54BFCF756FAC4E90001A5
:103CC0000AE04FF0D352B14BFCF74EFA32463B4676
:103CD000FCF74AFAC4E9000117B04FF0FF30BDE825
:103CE000F08FAB49A942159978DB21F0004183465A
:103CF0008846A84AA84BFCF7DEFA0022A74BFCF73F
:103D000033FAFCF74AFF0990FCF736FF06460F46E8
:103D10009C4A5346FCF7CFFA43465A46FCF7C8FA8A
:103D200080468A46984A994B30463946FCF7C3FA92
:103D30002A0D01250B9242465346FCF7B9FA032D92
:103D4000C4E9000139D00B98C1F30A51401A05EBC0
:103D500045111139814230DA9148C346784400EB6D
:103D60000510CDF80CA00C90D0E900233046394660
:103D7000FCF7A1FA02460B460491069058460399B7
:103D8000FCF793FA80468A4602460B46584603994A
:103D9000FCF78BFA049B069AFCF787FA83460C988B
:103DA00003913946D0E902233046FCF784FA5A469B
:103DB000039BFCF77AFA6D1CBDE707980028A2BFA9
:103DC000099817B0BDE8F08F616881F0004161602B
:103DD000099817B04042BDE8F08FFFE78446159878
:103DE000C1F31301C0F30A50A0F2F5304FEA601896
:103DF00000F01F06C6F120001390002006900790E7
:103E000041F4801E05206D4676B1664A08EB00013C
:103E10007A4452F8213002EB8101B3404A68139989
:103E200022FA01F1194305E05F4908EB00027944E9
:103E300051F82210A1FB0E27A1FB0C131A449A4241
:103E400034BF0123002303EB070A05EB8003D3E90A
:103E500001B70F448F4234BF0121002193448B44AA
:103E600011B1934502D903E0934501D2012100E04D
:103E70000021C3E901B7514445F82010011EA0F10B
:103E80000100C1DC0298059F00F10050800F1290E4
:103E90000298DDE903568000FCF76EFE8346284653
:103EA0000D91FCF791FA6FF01D02FCF776FACDE95F
:103EB0000E013046FCF788FA6FF03D02FCF76DFA10
:103EC00080468A463846FCF77FFA6FF05D02FCF7C1
:103ED00064FA0746424653461191FCF745F9DDE97D
:103EE0000E23FCF741F95A460D9BFCF73DF90025DE
:103EF0000E465A4628460D9BFCF7D7F9DDE90E23FE
:103F0000FCF7D3F942465346FCF7CFF93A46119BEA
:103F1000FCF7CEF9DFF898A0244A5346FCF7CBF91A
:103F200007468846234A244B31462846FCF7C3F906
:103F30003A464346FCF718F9074688464FF0A84230
:103F4000534631462846FCF7B6F93A464346FCF755
:103F50000BF9159A12F0004F04D0129A81F000412B
:103F600052421292C4E90001129817B0BDE8F08FD6
:103F7000FB21E93F7CD90240FB21F93F7370032EFE
:103F80008A19A33B000040543163621A61B4D03DEA
:103F9000FB21394183C8C96D305FE43F0000E03F39
:103FA000201100009C1000007E100000182D4454C9
:103FB000FB21F93D3326A611460B113C2DE9FF4D9F
:103FC00021F0004807460C46B8F1795F08DAFCF7A3
:103FD000E4FD002801BF0020324904B0BDE8F08DA7
:103FE0003A46234610461946FCF765F9054602464F
:103FF0002D480E460B460621784400F05DF82A460F
:104000003346FCF758F9DDE9022382468B463846F1
:104010002146FCF750F904460F4652465B462846B7
:104020003146FCF748F922463B46FCF73EF9074685
:104030008A464FF0FF3228463146FCF7AEF91B4A5C
:1040400090450ADA3A465346FCF72FF904B00022AD
:10405000BDE8F04D134BFCF72BB9154A4245A8BFFC
:10406000A8F500154FF00004B8BF124D22462B46AC
:10407000FCF71BF90646884622462B4600200949D4
:10408000FCF713F904460D463A465346304641467E
:10409000FCF70BF904B022462B46BDE8F04DFCF7C7
:1040A00007B900000000F03F540E00003333D33F47
:1040B0000000E93F0000D23F2DE9F0414F1E00EB28
:1040C000C7010446D1E9000115461E4637F0060235
:1040D0000DD02A463346FCF7EEF87F1E04EBC703EB
:1040E000D3E90023FCF740F837F00602F1D1022FA4
:1040F00025D0042F13D0062F18BFBDE8F0812A4623
:104100003346FCF7D8F8D4E90A23FCF72DF82A4601
:104110003346FCF7D0F8D4E90823FCF725F82A4603
:104120003346FCF7C8F8D4E90623FCF71DF82A4605
:104130003346FCF7C0F8D4E90423FCF715F82A4607
:104140003346FCF7B8F8D4E90223FCF70DF82A4609
:104150003346FCF7B0F8D4E90023BDE8F041FCF7A2
:1041600003B800002DE9FF4D054621F0004084B062
:104170000C46B0F1795F0BDA2846FFF747FD0428BB
:1041800008BF00F06FF8284608B02146BDE8F08D62
:104190002A460B461046FCF78EF806460F462A467E
:1041A0002346FCF788F8804626488A4632463B4636
:1041B00005217844FFF780FF83461098029160B391
:1041C000214A224B40465146FCF775F8CDE90001E3
:1041D0005A4640465146029BFCF76DF88246884697
:1041E000DDE906014FF0FF32FCF7D7F852464346AF
:1041F000FCF75BF832463B46FCF75DF8DDE9062349
:10420000FCF753F8DDE90023FCF74FF808B02A4625
:104210002346BDE8F04DFCF74BB80B465A463046F6
:104220003946FCF748F8084A084BFBF79DFF424621
:104230005346FCF740F808B02A462346BDE8F04D47
:10424000FBF792BF920D0000495555555555C5BF16
:104250000122FCF7A2B80022134610461146FCF7D3
:1042600004BA0000024A00201107FCF796B80000CB
:1042700001FDFFFF01480068704700009401002025
:1042800002E008C8121F08C1002AFAD1704770471F
:10429000002001E001C1121F002AFBD1704700007D
:1042A0000149086070470000940100202DE9FF5F7C
:1042B00082B00021DDE90430020DDDF840B0034397
:1042C00018D044F61050A2F2FF3242431514119850
:1042D00001281FD0A5EB0B00401C5FEA000A4FF03D
:1042E00000064E4FDFF83891B046504615D5CAF15A
:1042F000000413E0119801244AA3012801D16FEAB8
:104300000B010298119AC0E90031C0E9024206B0DF
:10431000BDE8F09FCBF10000DFE704460021404AF2
:10432000491842EB0450CDE9001012E0E00707D035
:1043300032463B4640464946FBF7BDFF804689462C
:1043400032463B4610461946FBF7B5FF06460F4678
:104350006410002CEAD1DDE90401DDE90023BAF1A3
:10436000000F06DAFBF7A7FF42464B46FBF7A3FF19
:1043700005E0FCF77AF942464B46FCF776F904462D
:104380000E460022284BFCF7F7F903D84FF0FF3018
:10439000014607E00022254B20463146FBF7E4FEAC
:1043A000FCF7D2F9102409E0002C0ADB0A220023D2
:1043B000FCF75EF8039B30321A55641E50EA010286
:1043C000F2D1641C039AC4F111031444119A012A16
:1043D00003D0012208430DD10AE0084304D0002095
:1043E0004FF0110B119072E7A3EB0B056D1E0DE062
:1043F0005B4504DD4FF0000205F1010504E003DA3E
:104400004FF00002A5F10105002AECD002981199A5
:10441000C0E90231C0E9004579E70000000014401E
:104420000000F03F300000000000F0430000E03FDB
:1044300030380A2801D20120704700207047000060
:104440002DE9FF4F95B09B468946064600250FE2B1
:10445000252877D100242746F84A0121059400E059
:10446000044316F8013F203B01FA03F01042F7D154
:1044700030782A2811D06FF02F033078A0F1300265
:10448000092A16D8059A44F0020402EB820203EBD3
:1044900042021044761C0590EFE759F8042B059270
:1044A000002A03DA504244F40054059044F0020418
:1044B000761C30782E2816D116F8010F44F004042B
:1044C0002A280DD06FF02F023078A0F13003092B8D
:1044D00009D807EB870302EB4303C718761CF3E701
:1044E00059F8047B761C30786C280FD006DC4C28F9
:1044F00017D068280DD06A2814D104E0742810D091
:104500007A280FD10DE044F400140AE044F480143A
:1045100001E044F440147278824202D104F5801420
:10452000761C761C307866280BD013DC582877D0A0
:1045300009DC002875D04528F6D04628F4D0472855
:104540001AD19DE118E0632835D0642879D0652818
:1045500012D195E1702873D008DC6728F1D0692862
:104560006FD06E280DD06F2806D1B5E073282CD0FF
:10457000752875D0782874D05A46179990476D1CC5
:1045800075E1C4F30250022809D003280DD0D9F8F0
:10459000001004280DD00D6009F1040967E1D9F875
:1045A0000010EA17C1E90052F6E7D9F800100D80B3
:1045B000F2E70D70F0E719F8041B8DF800100020E9
:1045C0008DF80100EA46012003E059F804AB4FF0F2
:1045D000FF3061074FF0000102D40DE008F1010146
:1045E0008846B9420FDA8045F8DB1AF8081000292E
:1045F000F4D108E008F1010188468142FADB1AF89B
:1046000008100029F6D105985B46A0EB0807214663
:104610003846179A00F094FA284400EB080507E0A2
:104620004DE029E10DE01AF8010B5A461799904721
:10463000B8F10108F7D25B4621463846179A13E1D4
:1046400042E00A220092C4F302524FF0000A022A0A
:1046500008D059F804CB032A4FEAEC710AD00DE0D8
:1046600029E02AE009F1070121F00702F2E802C17E
:10467000914609E00FFA8CFC4FEAEC71042A03D151
:104680004FFA8CFC4FEAEC71002907DA0A46002148
:10469000DCF1000C61EB02012D2202E0220504D5C1
:1046A0002B228DF80420012203E0E20701D0202212
:1046B000F7E7904659E00A2102E010220DE01021B0
:1046C0004FF0000A00910BE010224FF0000A44F076
:1046D00004040827009203E008224FF0000A009229
:1046E000C4F30252022A05D059F804CB0021032A50
:1046F00008D009E009F1070121F00702F2E802C140
:10470000914605E01FFA8CFC042A01D10CF0FF0C45
:104710004FF00008220728D5702806D0009B83F0B0
:10472000100353EA0A0305D00EE040228DF804205E
:10473000012208E05CEA010206D030228DF8042054
:104740008DF8050002229046009B83F0080353EA8F
:104750000A030AD15CEA010201D1620705D53022C1
:104760008DF804204FF001087F1E582804D034A093
:1047700003900EA802900DE036A0F9E7534660467C
:10478000009AFBF775FE84460398825C0298401EEF
:10479000029002705CEA0100F0D1029806A9081AA2
:1047A00000F1200A600702D524F4803400E00127DC
:1047B000574502DDA7EB0A0000E0002000EB0A01EC
:1047C000009005984144401A0590E00306D45B46EA
:1047D0002146179A059800F0B3F90544002706E032
:1047E00001A85A46C05D179990476D1C7F1C47452C
:1047F000F6DBE0030CD55B462146179A059800F0DE
:104800009FF9054404E030205A46179990476D1CE3
:104810000099481E00900029F5DC08E002980299F2
:104820005A460078491C0291179990476D1CBAF1BD
:104830000001AAF1010AF1DC65E10000092801008C
:104840003031323334353637383961626364656606
:1048500000000000303132333435363738394142C8
:10486000434445460000000000F058F90544761C1A
:10487000307800287FF4ECAD19B02846BDE8F08F01
:10488000620700D4062709F1070222F0070CFCE8B2
:104890000223E14603F000485FEA080C02D00FF261
:1048A000702C0DE05FEA045C02D50FF2682C07E083
:1048B0005FEAC47C02D00FF2602C01E0AFF2700C12
:1048C0004FF0FF3823F00043CDF850C065280CD0DE
:1048D00006DC452809D046281DD047283DD13DE0BB
:1048E000662818D067287ED138E00021112F01DB1F
:1048F000112000E0781CCDE9000106A90EA8FFF701
:10490000D5FCDDE90F010E9A03910021009207F119
:10491000010A04914DE04FF000400097CDE90110ED
:1049200006A90EA8FFF7C2FCDDE90F0203920E9B59
:1049300011990022DDF80CA00093049211B9791CA2
:1049400000EB010AB7EB0A0004D4C0F1FF3007F115
:10495000010A0490AAEB0700019044E0012F00DA5D
:1049600001270021112F01DD112000E03846CDE99B
:10497000000106A90EA8FFF799FCDDE90F010E9AC8
:104980000391002104910092BA4621070CD40399A7
:10499000514500DA8A46BAF1010F05DD009AAAF105
:1049A0000101515C302908D0B84202DA10F1040F3D
:1049B00006DA0121CDE9011015E0AAF10101E9E7CC
:1049C000002805DC049901440491AAEB000102E0EF
:1049D000411C514500DD8A460499401A401C019053
:1049E0004FF000400290200704D40198504501DBAD
:1049F000CDF8048000208DF84F0002980DF14F078C
:104A0000B0F1004F25D02B200E9002984FF00208F5
:104A100000280CDA404202902D200E9007E00A2177
:104A20000298FBF70FFD3031029007F8011DB8F135
:104A30000001A8F10108F2DC02980028EFD1791EEC
:104A40000E980870307800F0200040F0450007F81C
:104A5000020D12A8C01B00F107081498007800B1DD
:104A6000012000EB0A01019801EBE0710598414437
:104A7000401A401E0590E00306D45B462146179A73
:104A8000059800F05DF805441498007818B15A466E
:104A9000179990476D1CE00324D55B462146179A71
:104AA000059800F04DF805441CE00498002807DB49
:104AB000DDE90301884203DD0098405C179901E0BD
:104AC000179930205A469047049805F10105401C7B
:104AD00004900198401E019004D12E205A46179947
:104AE00090476D1CBAF10001AAF1010ADDDC05E076
:104AF00017F8010B5A46179990476D1CB8F1000141
:104B0000A8F10108F4DC5B462146179A0598ABE64C
:104B10002D0000002B000000200000002DE9F041D6
:104B2000044600251E461746880404D405E039468D
:104B30002020B0476D1C641EF9D52846BDE8F081E1
:104B40002DE9F041044600251E469046C80301D5D4
:104B5000302700E02027880404D505E04146384688
:104B6000B0476D1C641EF9D52846BDE8F0810A687F
:104B7000531C0B601070704730B583B00446FFF7CC
:104B800079FB05460020CDE9000002462146684633
:104B9000FBF7DBFC2846FFF783FBDDE9000103B0F0
:104BA00030BD000010B5002821D0114B0022001F9D
:104BB000196803E0814203D80A4649680029F9D1FF
:104BC00052B11368841A9C4204D1006818441060E2
:104BD000104602E0506000E0186039B102680B1A1C
:104BE000934203D10B681A4402604968416010BDCA
:104BF0008C010020FCF7BEF9FDF730FDFDF764FAEB
:104C0000FDF780FAFDF7FEFA00214448FDF740FA6F
:104C100000214248FDF710F804214048FDF738FA1A
:104C200004213E48FDF708F808213C48FDF730FA1A
:104C300008213A48FDF700F83848FDF749F8384CA4
:104C4000DFF8E0B0DFF8E0804FF0FF39D4E902018F
:104C500000F0A4F8054620880E460746FBF7B4FB93
:104C60002A463346FBF727FB4A46FBF796FB0546E9
:104C70000E467808FBF7A8FB2A463346FBF774FA82
:104C8000FBF7AFFBCBF80000284FD4E902013A460E
:104C90004346FBF70AFB00F081F8054620880E46E4
:104CA0008246FBF791FB33462A46FBF704FB4A4654
:104CB000FBF773FB05460E464FEA5A00FBF784FBF1
:104CC0002A463346FBF750FAFBF78BFB1549091DC3
:104CD0000860D4E902013A464346FBF745FA00F082
:104CE0005DF8054620880E460746FBF76DFB2A4611
:104CF0003346FBF7E0FA4A46FBF74FFB06460D4604
:104D00007808FBF761FB32462B46FBF72DFAFBF7E1
:104D100068FB04490831086098E70000980100200A
:104D200000000020342C014025BF0040BF58F28B0A
:104D3000F0B50B30154D20F007010024144A0FE0A8
:104D400003688B420BD38B4205D95E1A4318476820
:104D5000C3E9006700E04368136002C004E0021D7D
:104D600010680028ECD12046002802D1286808B13C
:104D70000020F0BD064A07481060074A121A22F0C8
:104D80000702C0E9002401202860D7E79001002035
:104D90008C010020541500205019002000B5254B2F
:104DA00021F0004287B09A4203DC002213460092B1
:104DB0002BE0214B9A4208D140B94FF00100FFF798
:104DC0006FFAFFF748FA07B000BD03DBFFF740FAC0
:104DD00007B000BD02AAFEF72DFF10F003014FF04F
:104DE00001000DD0012914D002291AD00DF1080CB0
:104DF0009CE80F00FFF7E2F807B081F0004100BD2A
:104E00000DF1080C00909CE80F00FFF7ABF907B01C
:104E100000BD0DF1080C9CE80F00FFF7CFF807B0BC
:104E200000BD0DF1080C00909CE80F00FFF79AF907
:104E3000E2E70000FB21E93F0000F07F00000000F6
:104E4000000000000102030406070809000000003A
:104E50004C5555555555A53F7751C1166CC156BF98
:104E60009015CB19A001FA3EAD529C804F7E92BEA8
:104E7000C4B1B4BD9EEE213ED43888BEE9FAA8BDC7
:104E800000004054FB21F93F3163621A61B4D03D08
:104E90000000601A61B4D03D7370032E8A19A33BE1
:104EA0000000002E8A19A33BC14920259A837B3933
:104EB00000000000000000006E83F9A22915444E96
:104EC000D15727FCC0DD34F5999562DB4190433C16
:104ED000AB6351FE61C5BBDE3A6E24B7E0D24D42F2
:104EE000EA2E49061C92D1091CEB1DFE3EA729B1F2
:104EF000F53582E88444BB2E26709CE9417E5FB480
:104F000039D69139F43953838B5F849C3B28F9BDA2
:104F1000FF97F81F0F9805DE8B112FEF1F6D0A5AB0
:104F2000CF7E366DB709CB27663F464F2DEA5F9E91
:104F3000C7BA27757BF1E5EBF739073DEA92528A4C
:104F4000B15FFB6B085D8D1FA6F810111111813F39
:104F5000D561C119A0012ABF7DFEB157E31DC73E2F
:104F6000EB9C2B8AE6E55ABE7CD5CF5A3AD9E53D73
:104F7000DDDDDDDDDCBBBBDDDDDDDDDDDDDDDDDDA6
:104F800098888888888888887777777777888888E6
:104F9000855555566666666666666666666888887E
:104FA0008333333222222222222222222228888D77
:104FB000D04F00080000002098010000BE0C00083F
:104FC0009850000898010020B81D00009042000889
:104FD000031E8A0213B92C1B08E9041AF504131DD9
:104FE0002D1B0849041A990C1AC504170403090457
:104FF00012011402020216408304405726020102E5
:10500000030113210D1B081B041A17041A45041968
:105010001311821084A24A04130A06297E2A402012
:105020001C0902433F111CC032091F1B01020B1354
:1050300005241610010524011009010424020205AB
:105040002406170107058203081C10090475320A9B
:105050001D07050102432C070581070938442A4032
:10506000072A8107112B0907440A2204440A16FF64
:105070004413752A1408E5291408512B42081A21F3
:10508000101AA3101AB704C11A5D181A51041A692C
:08509000041A4504C1000000F0
:04000005080000ED02
:00000001FF
